:100000000C940C170C9436170C9436170C94361766
:100010000C9436170C9436170C9436170C9436172C
:100020000C9436170C94FE710C9436170C943617FA
:100030000C9436170C94948B0C9436170C9436173A
:100040000C9436170C949A850C94D8740C9436172B
:100050000C94F56D0C94EB6D0C9436170C943617CC
:100060000C9436170C9436170C9436170C943617DC
:100070000C9436170C9436170C9436170C943617CC
:100080000C9436170C9436170C943617084AD73B45
:100090003BCE016E84BCBFFDC12F3D6C74319ABD57
:1000A00056833DDA3D00C77F11BED9E4BB4C3E917B
:1000B0006BAAAABE000000803F05A84CCDB2D44E6A
:1000C000B93836A9020C50B9918688083CA6AAAA6C
:1000D0002ABE000000803F004E414E494E4954590F
:1000E000494E46CDCCCC3D0AD7233C17B7D1387703
:1000F000CC2B329595E6241FB14F0A000020410019
:1001000000C84200401C4620BCBE4CCA1B0E5AAE62
:10011000C59D7400407A10F35A00A0724E18090071
:1001200010A5D4E80000E87648170000E40B54025C
:100130000000CA9A3B000000E1F505000080969897
:1001400000000040420F000000A0860100000010E7
:100150002700000000E80300000000640000000029
:10016000000A00000000000100000000002C76D80A
:1001700088DC674F0823DFC1DFAE59E1B1B796E5F0
:10018000E3E453C63AE651997696E8E6C28426EB54
:10019000898C9B62ED407C6FFCEFBC9C9F40F2BA67
:1001A000A56FA5F490055A2AF75C936B6CF9676DFF
:1001B000C11BFCE0E40D47FEF520E6B500D0ED9054
:1001C0002E0300943577050080841E080000204E21
:1001D0000A000000C80C333333330F986E128311BA
:1001E00041EF8D2114893BE65516CFFEE6DB18D191
:1001F000844B381BF77C1D901DA4BBE42420328463
:10020000725E228100C9F124ECA1E53D275072699C
:100210006E7420506175736564004572726F722050
:1002200077726974696E6720746F20454550524F2C
:100230004D210A000F150E1216170E1303021A1481
:1002400001000E0C190DFF180C0400016275737982
:100250003A2070617573656420666F7220696E70F4
:1002600075740A00627573793A20706175736564FC
:1002700020666F7220757365720A00627573793A31
:100280002070726F63657373696E670A0053544F11
:10029000505045442E20005072696E746572207370
:1002A000746F707065642064756520746F2065726A
:1002B000726F72732E2046697820746865206572AB
:1002C000726F7220616E6420757365204D39393903
:1002D00020746F20726573746172742E20285465C7
:1002E0006D706572617475726520697320726573D3
:1002F00065742E205365742069742061667465727C
:100300002072657374617274696E67290A004E6F9A
:1003100020436865636B73756D2077697468206C22
:10032000696E65206E756D6265722C204C61737408
:10033000204C696E653A20004E6F20436865636B00
:1003400073756D2077697468206C696E65206E75B1
:100350006D6265722C204C617374204C696E653A35
:100360002000636865636B73756D206D69736D61E3
:100370007463682C204C617374204C696E653A205C
:10038000004C696E65204E756D6265722069732040
:100390006E6F74204C617374204C696E65204E75CD
:1003A0006D6265722B312C204C617374204C696E28
:1003B000653A20004D313130004D313137004D3339
:1003C000310053442072656164206572726F720A55
:1003D00000446F6E65207072696E74696E67206686
:1003E000696C650A002121204B494C4C20636175E2
:1003F00073656420627920746F6F206D7563682067
:10040000696E6163746976652074696D65202D205D
:1004100063757272656E7420636F6D6D616E643AA0
:100420002000506C656173652052657365740050DF
:1004300052494E5445522048414C5445440025539E
:100440003A202553004B494C4C45442E2000507215
:10045000696E7465722068616C7465642E206B69C6
:100460006C6C28292063616C6C6564210A006563EB
:10047000686F3A004572726F723A0020496E766179
:100480006C696420657874727564657220004361DC
:10049000703A00220A00656E7175657565696E6750
:1004A0002022006F6B00526573656E643A20002055
:1004B000573A00436F6F6C696E672E2E2E004865A9
:1004C0006174696E672E2E2E00452025530023642B
:1004D0006566696E652044454641554C545F004B46
:1004E0006420004B6920004B70200050494420419B
:1004F00075746F74756E652066696E69736865647E
:10050000212050757420746865206C617374204BD1
:10051000702C204B6920616E64204B6420636F6EE9
:100520007374616E74732066726F6D2062656C6F98
:100530007720696E746F20436F6E666967757261AC
:1005400074696F6E2E680A00504944204175746FBB
:1005500074756E65206661696C6564212074696DCF
:10056000656F75740A00546865726D616C20527510
:100570006E617761790048656174696E67206661B4
:10058000696C656400504944204175746F74756EE0
:1005900065206661696C6564212054656D706572C3
:1005A000617475726520746F6F20686967680A00EE
:1005B000204B643A2000204B693A2000204B703ACF
:1005C00020000A20436C6173736963205049442002
:1005D0000A002054753A2000204B753A2000206D07
:1005E00061783A2000206D696E3A200020643A203C
:1005F0000020626961733A200050494420417574BB
:100600006F74756E652073746172740A005049448A
:10061000204175746F74756E65206661696C6564E0
:10062000212054656D706572617475726520746FF8
:100630006F20686967680A00504944204175746FEB
:1006400074756E65206661696C6564212042616421
:10065000206578747275646572206E756D6265725E
:100660000A004572723A207574663820666F6E749F
:10067000206E6F7420696E697469616C697A656453
:100680002E004572723A207574663820666F6E745B
:10069000206E6F7420696E697469616C697A656433
:1006A0002E004572723A207574663820666F6E743B
:1006B000206E6F7420696E697469616C697A656413
:1006C0002E0046696C2E204469612E004520696E1B
:1006D000206D6DC2B3004D33303320553120452598
:1006E000692053256900504944204175746F747521
:1006F0006E65202A005049442D44202A0050494468
:100700002D49202A005049442D50202A002008203D
:1007100046616374002008204D6178002008204D58
:10072000696E004F6666004F6E004175746F7465A8
:100730006D70005654726176204D696E00566D6979
:100740006E00566D6178204500566D6178205A0024
:10075000566D6178205900566D6178205800416DC2
:100760006178204500416D6178205A00416D6178C3
:10077000205900416D6178205800412D54726176F6
:10078000656C00412D52657472616374004163634E
:10079000656C004A756E6374696F6E2044657600FF
:1007A0004573746570732F6D6D005A737465707343
:1007B0002F6D6D005973746570732F6D6D005873D4
:1007C000746570732F6D6D00416476616E6365644E
:1007D0002053657474696E6773003F0043616E63F4
:1007E000656C00496E6974004D34323800496E6999
:1007F0007469616C697A6520454550524F4D0046D9
:10080000696C616D656E740054656D7065726174BC
:100810007572650053746570732F6D6D004A657253
:100820006B00416363656C65726174696F6E00563D
:10083000656C6F636974790053657420486F6D65EA
:10084000204F66667365747300436F6E66696775E3
:10085000726174696F6E00426564004E6F7A7A6CE3
:10086000650046616E20537065656400436F6E6677
:10087000696775726174696F6E00526573746F7227
:1008800065206661696C73616665004C6F61642008
:1008900053657474696E67730053746F7265205387
:1008A000657474696E677300507265686561742061
:1008B00041425320436F6E660050726568656174F3
:1008C00020504C4120436F6E6600416476616E6338
:1008D00065642053657474696E6773004D61696E59
:1008E00000313235003A200035003A2000424544BC
:1008F0003A4550434F53203130304B0052756E61B2
:100900007761792057617463683A204F4E004D61DA
:10091000782054656D7000323735003A20004D69FB
:100920006E2054656D700035003A200045313A2044
:100930004550434F53203130304B00505355004702
:10094000656E65726963003A200050726F746F6360
:100950006F6C00312E30003A200042617564003126
:100960003135323030003A20004D656C7A692028EC
:10097000437265616C697479290045787472756495
:100980006572730031003A2000687474703A2F2F3A
:100990006D61726C696E66772E6F726700456E646A
:1009A00065722D3500323031392D31322D3234001F
:1009B000322E302E31004D61726C696E00546865C4
:1009C000726D6973746F727300426F617264204953
:1009D0006E666F005072696E74657220496E666F44
:1009E000004D61696E003F004261636B0053746F9C
:1009F00070004D323100496E69742E204D65646976
:100A000061005072696E742066726F6D204D65646E
:100A10006961004D32320052656C65617365204D2D
:100A2000656469610041626F7574205072696E740B
:100A3000657200436F6E66696775726174696F6E87
:100A40000054656D7065726174757265004D6F74E8
:100A5000696F6E00526573756D65205072696E74B2
:100A6000004D656469612052656C65617365640061
:100A700054756E650053746F70205072696E740007
:100A80005061757365205072696E7400496E666FAF
:100A90002053637265656E003F0053746172742069
:100AA0005072696E740043616E63656C00507269C8
:100AB0006E740043616E6E6F7420656E7465722093
:100AC0007375626469723A2000022E2E000152652D
:100AD0006672657368004D61696E004D6F74696F71
:100AE0006E004D38340044697361626C6520537444
:100AF00065707065727300473238004175746F20FD
:100B0000486F6D65004D61696E0050726568656182
:100B10007420504C4120456E6400507265686561D8
:100B20007420504C412042656400507265686561D4
:100B3000742041425320456E6400507265686561BF
:100B40007420414253204265640054656D706572A3
:100B5000617475726500436F6F6C646F776E0050DF
:100B60007265686561742041425300507265686522
:100B7000617420504C410046616E2053706565647D
:100B800000426564004E6F7A7A6C65004D61696E53
:100B9000004261627973746570205A00466C6F7709
:100BA0000046616E20537065656400426564004EC6
:100BB0006F7A7A6C65005370656564004D61696E8B
:100BC000002568753A253032687500253032687521
:100BD0003A25303268750025687564202530326802
:100BE000753A253032687500202020202020200012
:100BF00020202020001FE0201020102010102010A6
:100C0000202010201030300840048003001FE03FF7
:100C1000F03FF03FF01FE01FE03FF03FF03FF00FEC
:100C2000C0078003003FFFF038007030FC3020FC2C
:100C3000102078102030102C00D02E31D02F7BD0F7
:100C40002F7BD02E31D02C00D020301020781020D7
:100C5000FC1030FC303800703FFFF03FFFF03800F0
:100C6000703186302387102787902F87D02F03D0AD
:100C70002030102078102078102030102F03D02F33
:100C800087D02787902387103186303800703FFF48
:100C9000F01FFFF81FFFF804104002082002082090
:100CA00004104008208010410010410008208004FA
:100CB00010400000001FFFF81FFFF8F801800078C7
:100CC000480080004043C38CD07071249267084173
:100CD000249E40084924904048FBB3CEE0304D6547
:100CE00064696120496E73657274656400456E6461
:100CF00065722D352052656164792E005072696EDF
:100D000074696E672E2E2E005072696E74204162D7
:100D10006F72746564004D323500506175736520E3
:100D20005072696E740000005C4300005C43000078
:100D30009643000000000000000000000000000CCE
:100D40000D00FE07022603BC017FFE08FE08FE051B
:100D5000080806000040F0C8888898781005080840
:100D6000060000C0F88888888888F8050505060010
:100D7000012030F830200508080600002070F82017
:100D8000202020E00509090600FF2070A8A8B888E7
:100D9000887020050606060001E08CEA8C8A0A05A8
:100DA00009090600FFF8A88888888888A8F8050A35
:100DB0000A0600FE205050505088A8A888700303EF
:100DC0000306000340A040FFFFFFFFFFFFFFFFFF00
:100DD000FFFFFFFFFFFFFFFFFFFFFFFFFF00000020
:100DE0000605FF01070706020080808080800080E2
:100DF000030303060105A0A0A00506060600005097
:100E0000F85050F8500509090600FF2070A8A0709E
:100E100028A87020050707060000C8C810204098C1
:100E20009805070706000040A0A040A890680103AD
:100E3000030602058080800309090601FF20404067
:100E40008080804040200309090601FF8040402047
:100E5000202040408005070706000020A870207071
:100E6000A8200505050600012020F8202002030324
:100E70000601FFC04080050101060003F8020202DE
:100E8000060100C0C005070706000008101020403A
:100E90004080050707060000708898A8C88870037E
:100EA000070706010040C040404040E00507070634
:100EB0000000708808102040F8050707060000F8B9
:100EC00008103008887005070706000010305090A1
:100ED000F81010050707060000F880F00808887071
:100EE000050707060000304080F088887005070776
:100EF000060000F808101020202005070706000053
:100F000070888870888870050707060000708888D8
:100F100078081060020505060100C0C000C0C002CC
:100F200006060601FFC0C000C0408003050506019B
:100F3000012040804020050303060002F800F8036A
:100F400005050601018040204080050707060000D6
:100F5000708810202000200507070600007088B860
:100F6000A8B88070050707060000708888F8888890
:100F700088050707060000F04848704848F0050754
:100F800007060000708880808088700507070600CB
:100F900000F04848484848F0050707060000F88078
:100FA00080F08080F8050707060000F88080F08058
:100FB000808005070706000070888080988870058B
:100FC0000707060000888888F888888803070706CE
:100FD0000100E04040404040E005070706000038BF
:100FE0001010101090600507070600008890A0C040
:100FF000A09088050707060000808080808080F828
:1010000005070706000088D8A8888888880507078C
:101010000600008888C8A898888805070706000089
:1010200070888888888870050707060000F088881F
:10103000F080808005070706000070888888A890E7
:1010400068050707060000F08888F0A0908805076B
:101050000706000070888070088870050707060082
:1010600000F820202020202005070706000088889F
:101070008888888870050707060000888888885057
:10108000502005070706000088888888A8A8500512
:101090000707060000888850205088880507070643
:1010A000000088885020202020050707060000F84F
:1010B0000810204080F80309090601FFE0808080C5
:1010C00080808080E00507070600008040402010F7
:1010D00010080309090601FFE0202020202020201D
:1010E000E00503030600052050880501010600FE07
:1010F000F8030303060105804020050505060000EE
:1011000070087888780507070600008080F08888D6
:1011100088F00505050600007080808870050707C7
:10112000060000080878888888780505050600000C
:101130007088F08070050707060000304840E040E6
:1011400040400507070600FE70888888780870050B
:1011500007070600008080F0888888880307070654
:1011600001004000C0404040E00409090601FE10B3
:1011700000301010101090600507070600008080F6
:101180008890E09088030707060100C04040404077
:1011900040E0050505060000D0A8A8A8A80505059B
:1011A000060000B0C888888805050506000070881C
:1011B0008888700507070600FEF0888888F0808020
:1011C0000507070600FE7888888878080805050561
:1011D000060000B0C8808080050505060000788004
:1011E0007008F00507070600002020F820202018CE
:1011F000050505060000888888986805050506002D
:101200000088888850200505050600008888A8A861
:101210005005050506000088502050880507070680
:1012200000FE88888850204080050505060000F8EB
:10123000102040F80309090601FF2040404080408B
:101240004040200109090602FF8080808080808064
:1012500080800309090601FF804040402040404053
:101260008005030306000248A890FF290A002062B7
:10127000797465733B2063726320005365747469ED
:101280006E67732053746F72656420280045455063
:10129000524F4D206461746173697A652065727282
:1012A0006F722E0A00290A002062797465733B2050
:1012B00063726320002073746F72656420736574B9
:1012C00074696E67732072657472696576656420EF
:1012D0002800202863616C63756C61746564292142
:1012E0000A0020213D2000454550524F4D204352D9
:1012F00043206D69736D61746368202D20287374B9
:101300006F7265642920002053697A653A2000498C
:101310006E6465783A2000204D61726C696E3D56AE
:101320003734290A00454550524F4D207665727377
:10133000696F6E206D69736D61746368202845451F
:1013400050524F4D3D0048617264636F6465642084
:1013500044656661756C742053657474696E677357
:10136000204C6F616465640A000000FA430000FAD3
:10137000430000A0400000C8410000A0420000A0BF
:10138000420000C8430000BA42F4010000F401002A
:101390000064000000881300002044002049002061
:1013A000204D33303120500050494420736574740F
:1013B000696E67733A0A0020460020420020480008
:1013C00020204D3134352053004D617465726961C0
:1013D0006C2068656174757020706172616D6574F0
:1013E0006572733A0A0020204D323036205800488A
:1013F0006F6D65206F66667365743A0A00204A0057
:1014000020540020530020204D323035204200204F
:101410004A3C6A756E635F6465763E00416476613E
:101420006E6365643A20423C6D696E5F7365676DFB
:10143000656E745F74696D655F75733E20533C6DB6
:10144000696E5F66656564726174653E20543C6DCB
:10145000696E5F74726176656C5F66656564726102
:1014600074653E0020540020520020204D3230345C
:10147000205000416363656C65726174696F6E2012
:1014800028756E6974732F7332293A20503C70723C
:10149000696E745F616363656C3E20523C72657473
:1014A000726163745F616363656C3E20543C747267
:1014B0006176656C5F616363656C3E0A0020204D58
:1014C0003230312058004D6178696D756D2041636F
:1014D00063656C65726174696F6E2028756E6974DE
:1014E000732F7332293A0A0020204D3230332058AE
:1014F000004D6178696D756D206665656472617413
:1015000065732028756E6974732F73293A0A005326
:10151000746570732070657220756E69743A0A0084
:1015200020204D3230302044300A0020204D32300F
:10153000302044002044697361626C65640A00468F
:10154000696C616D656E742073657474696E677320
:101550003A0020204D3134392043203B20556E691C
:10156000747320696E2043656C736975730A00207B
:10157000286D6D29002020473231202020203B207B
:10158000556E69747320696E206D6D00486F6D69CA
:101590006E67204661696C6564006F70656E00540B
:1015A0005249474745524544003A20007A5F6D69E9
:1015B0006E00795F6D617800785F6D6178005265CB
:1015C000706F7274696E6720656E6473746F7020DB
:1015D0007374617475730A00205A3A0020593A00F6
:1015E00020436F756E7420583A0020453A00205A07
:1015F0003A0020593A00583A005761726E696E6796
:101600003A20486F6D696E672042756D702044699D
:101610007669736F72203C20310A000202040000D8
:10162000A0400000A0400000004024F4D43050C38B
:101630008E20C2A24017828B7011127A910D816C9C
:10164000D90AA861E108C7586607615143061E4BD5
:101650005D05C145A7041A411104093D980371397C
:1016600031034036DB0265339102D4305402802EC0
:101670001D02632CEE01752AC501B028A0011027B8
:1016800081018F2564012B244B01E0223401AC2120
:101690001F018D200D01801FFC00841EED00971D91
:1016A000DF00B81CD200E61BC600201BBC00641A79
:1016B000B200B219A8000A19A0006A189900D1173F
:1016C000910040178B00B516840031167E00B315CB
:1016D00079003A157300C7146F0058146A00EE13AE
:1016E00066008813630025135E00C7125B006C124E
:1016F000570015125400C111510070114F002111F3
:101700004B00D61049008D104700461044000210CF
:101710004200C00F4000800F3E00420F3C00060F09
:101720003B00CB0E3800930E37005C0E3500270EC1
:101730003400F30D3200C10D3100900D3000600D0A
:101740002E00320D2D00050D2C00D90C2B00AE0CF7
:101750002900850C29005C0C2700350C27000E0C95
:101760002600E80B2400C40B2400A00B23007D0BF3
:1017700023005A0B2100390B2100180B2000F80A16
:101780001F00D90A1E00BB0A1E009D0A1D00800A08
:101790001D00630A1C00470A1B002C0A1B00110ACB
:1017A0001A00F7091A00DD091900C4091900AB096C
:1017B0001900920917007B091800630917004C09EA
:1017C000160036091600200916000A091500F5084A
:1017D0001500E0081400CC081400B8081400A40890
:1017E0001400900813007D0812006B0813005808BD
:1017F00012004608120034081100230811001208D4
:10180000110001081100F0071000E0071000D007D8
:101810001000C0071000B0070F00A10710009107CB
:101820000E0083070F0074070F0065070E005707AF
:101830000E0049070E003B070D002E070E00200783
:101840000D0013070D0006070D00F9060C00ED064C
:101850000D00E0060C00D4060C00C8060C00BC0607
:101860000C00B0060C00A4060B0099060C008D06B7
:101870000B0082060B0077060B006C060B0061065E
:101880000A0057060B004C060A0042060A003806FA
:101890000A002E060A0024060A001A060A0010068C
:1018A000090007060A00FD050900F4050900EB051B
:1018B0000900E2050900D9050900D0050900C7059E
:1018C0000900BE050900B5050800AD050800A5051D
:1018D00009009C050800940508008C050800840593
:1018E00008007C050800740508006C050700650504
:1018F00008005D050700560508004E05070047056E
:1019000007004005080038050700310507002A05D3
:101910000700230507001C050600160507000F0534
:1019200007000805060002050700FB040600F50491
:101930000700EE040600E8040600E2040700DB04EA
:101940000600D5040600CF040600C9040600C3043F
:101950000600BD040600B7040600B1040500AC048F
:101960000600A6040600A00405009B0406009504DA
:101970000500900406008A04050085040500800423
:1019800006007A04050075040500700405006B0468
:10199000050066040500610405005C0405005704A9
:1019A0000500520405004D040500480405004304E9
:1019B00005003E0404003A04050035040500300427
:1019C00004002C04050027040400230405001E0461
:1019D00004001A04040016040500110404000D0498
:1019E0000400090405000404040000040400FC03CE
:1019F0000400F8030400F4030400F0030400EC0303
:101A00000400E8030400E4030400E0030400DC0332
:101A10000400D8030400D4030400D0030400CC0362
:101A20000400C8030300C503030024F404D9201BE9
:101A3000C40C5C0E9804C4095F0265077101F405CB
:101A4000F900FB04B30048048700C1036900580390
:101A5000550003034500BE023A00840231005302E0
:101A60002A002902250004022000E4011C00C8010C
:101A70001900AF01170098011400840113007101CF
:101A800010006101100051010E0043010D003601EC
:101A90000B002B010B0020010B00150109000C01AC
:101AA000090003010800FB000800F3000800EB0038
:101AB0000700E4000600DE000600D8000600D200A1
:101AC0000600CC000500C7000500C2000500BD00EF
:101AD0000400B9000400B5000400B1000400AD002A
:101AE0000400A9000400A5000300A20003009F0059
:101AF00004009B000300980003009500020093007F
:101B00000300900003008D0002008B00030088009A
:101B100002008600020084000300810002007F00B2
:101B200002007D0002007B000200790002007700C5
:101B300001007600020074000200720001007100D2
:101B400002006F0002006D0001006C0002006A00DC
:101B500001006900020067000100660001006500E5
:101B600001006400020062000100610001006000E9
:101B700001005F0002005D0001005C0001005B00ED
:101B800001005A00010059000100580001005700EF
:101B900001005600010055000100540001005300EF
:101BA00000005300010052000100510001005000EC
:101BB00001004F0001004E0000004E0001004D00EA
:101BC00001004C0001004B0000004B0001004A00E6
:101BD00001004900010048000000480001004700E2
:101BE00001004600000046000100450000004500DD
:101BF00001004400010043000000430001004200D6
:101C000000004200010041000000410001004000CE
:101C100001003F0000003F0001003E0000003E00C8
:101C200001003D0000003D0001003C0000003C00C0
:101C300000003C0001003B0000003B0001003A00B6
:101C400000003A00010039000000390001003800AE
:101C500000003800000038000100370000003700A5
:101C6000010036000000360000003600010035009B
:101C70000000350000003500010034000000340091
:101C80000000340001003300000033000000330086
:101C9000010032000000320000003200010031007B
:101CA0000000310000003100010030000000300071
:101CB0000000300001002F0000002F0000002F0066
:101CC00000002F0001002E0000002E0000002E005A
:101CD00001002D0000002D0000002D0000002D004F
:101CE00001002C0000002C0000002C0000002C0043
:101CF00001002B0000002B0000002B0000002B0037
:101D000001002A0000002A0000002A0000002A002A
:101D1000010029000000290000002900000029001E
:101D20000000290001002800000028000000280011
:101D30000000280000002800010027000000270004
:101D400000002700000027000000270001002600F7
:101D500000002600000026000000260000002600EB
:101D600001002500000025000000250000002500DE
:101D700000002500000025000100240000002400D0
:101D800000002400000024000000240001002300C3
:101D900000002300000023000000230000002300B7
:101DA00000002300000023000100220000002200A8
:101DB000000022000000220000002200000022009B
:101DC000010021000000210000002100000021008E
:101DD000000021000000210000002100010020007F
:101DE0000000200000002000000020000000200073
:101DF00000002000000020000000200001001F0063
:101E000000001F0000001F0000001F0000001F0056
:101E100000001F0000001F0001001E0000001E0047
:101E200000001E0000001E000000043700001E29F4
:101E30000000511B00005810000010090000CC04E5
:101E40000000780200004101000042656400453155
:101E500000626564002C2073797374656D2073745F
:101E60006F7070656421204865617465725F4944D4
:101E70003A200048656174696E67206661696C6527
:101E80006400546865726D616C2052756E61776193
:101E9000790048656174696E67204661696C6564A4
:101EA0000048656174696E67206661696C656400ED
:101EB000546865726D616C2052756E61776179004E
:101EC000544845524D414C2052554E4157415900BE
:101ED000546865726D616C2052756E61776179002E
:101EE0004572723A204D415854454D50004D41586D
:101EF00054454D502074726967676572656400458A
:101F000072723A204D494E54454D50004D494E5441
:101F1000454D5020747269676765726564004D387D
:101F20003420582059205A204500202F00204240BC
:101F30003A0020403A007C3C3E5E2B3D3F2F5B5DEB
:101F40003B2C2A225C0043616E6E6F74206F7065BB
:101F50006E2073756264697220005344206361725D
:101F600064206F6B0A006F70656E526F6F7420662D
:101F700061696C65640A00766F6C756D652E696EBB
:101F80006974206661696C65640A00534420696E57
:101F90006974206661696C0A004D3234004D323339
:101FA0002025730046696C652073656C65637465F4
:101FB000640A002053697A653A200046696C6520FE
:101FC0006F70656E65643A2000454E44205355425B
:101FD000524F5554494E450A002220706F7300221B
:101FE00020706172656E743A2200535542524F550B
:101FF00054494E452043414C4C20746172676574CE
:102000003A2200747279696E6720746F2063616C84
:102010006C207375622D67636F64652066696C65FB
:1020200073207769746820746F6F206D616E7920FA
:102030006C6576656C732E204D4158206C65766515
:102040006C2069733A310A002E0A006F70656E20A9
:102050006661696C65642C2046696C653A2000579E
:10206000726974696E6720746F2066696C653A20C6
:1020700000667265736800646F696E670020666948
:102080006C653A20004E6F7720000000210024008C
:1020900027002A0000002200250028002B00000055
:1020A000200023002600290002020202020202028E
:1020B00004040404040404040303030303030303E8
:1020C0000101010101010101010204081020408009
:1020D0000102040810204080010204081020408002
:1020E0008040201008040201000000010200090ADB
:1020F00000000000040308070000000000000000CA
:10210000000000000000000002FFFFFFFFEFFFFFE4
:10211000FFFFFFFFFFFFFFFFEFEFFFFFFFFFFFFFEF
:10212000FFFFFFE7DFFFFFFFFFFFFFFFFFFFE7DF2F
:10213000FFFFFFFFFFFFFFFFFFE3DFFFFFFFFFFFEB
:10214000FFFFFFFFF3CFFFFFFFFFFFFFFFFFE1E117
:10215000CFFFFFFFFFFFFFFE78000003DDFFFFFF63
:10216000FFFEFF807E0001EEFFFFFFFFFE7DCFFC44
:102170000000F77FFFFFFFFF8E060000007BBFFF20
:10218000FFFFFFC0000000007DDFFFFFFFFFFC013D
:10219000FE00003EE7FFFFFFFFFFFFFC00031F7391
:1021A000FFFFFFFFFFFFF800018F81FFFFFFFFFF31
:1021B000FFE0000083F9FFFFFFFFFFFF00FC0000CE
:1021C000F0FFFFFFFFFFE00FFFC00000FFFFFFFF7A
:1021D000FE03FFFFC00000FFFFFFFFFFFFFFF9004E
:1021E0000000FFFFFFFFFFFFFFFC0007C0FFFFFF36
:1021F000FFFFFFFFFF0007E0FFFFFFFFFFFFFFFF05
:10220000E007F1FFFFFFFFFFFFFFFFFC07F9FFFF04
:10221000FFFFFFFFFFFFFF03F9FFFFFFFFFFFFFFD0
:10222000FFFF83F9FFFFFFFFFFFFFFFFFFC3FFFF7C
:10223000FFFFFFFFFFFFFFFFE1FFFFFFFFFFFFFFCC
:10224000FFFFFFF0BFFFFFFFFFFFFFFFFFFBF83FB8
:10225000FFFFFFFFFFFFFFFFF9F83FFFFFFFFFFF5B
:10226000FFFFFF7EF0FFFFFFFFFFFFFFFFFF8E037B
:10227000FFFFFFFFFFFFFFFFFFE01FFFFFFFFFFF6D
:10228000FFFFFFFFFFFFFFFFFFFFFFFFFFFFFFFF5E
:10229000FFFFFFFFFFFFFFFFFFFFFFFF7FFFFFFFCE
:1022A000FF00007FFFFFF87FFFFFFFFF80007FFF41
:1022B000FFE07FFFFFFFFFC3FCFFFFFFF8FFFFFF13
:1022C000FFFFC3FCFFFFFFF8FFFFFFFFFF87FDFFDE
:1022D000FFFFF1FFFFFFFFFF87FFFFFFFFF1FFFFA2
:1022E000FFFFFF0FE7F30FFC23FC3FFFFFFF0FEFA4
:1022F0008007F003F01E007FFE1FCF8187C787C7CE
:102300000C007FFE001FC7C78FC79F0F0CFFFE008A
:102310001F878F1F8F1F0F1FFFFC3F9F8F8F1F8EE9
:10232000001E3FFFFC7F3F0F1E3F1E3FFE3FFFF89A
:102330007FFF1F1C3F1C7FFC7FFFF8FFFF1E1C7EE2
:102340001C7FFC7FFFF0FFCE3E3C7E3C7FB8FFFF52
:10235000F0FF9E3C387C387E78FFFFE1FF3C7C78C4
:102360007C783CF1FFFFE1F8387878101801F1FF34
:10237000FF000060203C007C07807FFFFFFFFFFF25
:10238000FE1FFE1FFFFFFF687474703A2F2F6D61F0
:10239000726C696E66772E6F726700322E302E3146
:1023A0000001FFFFFFFFFFFFFFFFFFFFFFFFFF0F2A
:1023B000FFFFFFFFFFFFFFFFFFFFFFFFFF1E00000C
:1023C000000000000000000007FFFF3800000000D0
:1023D00000000000000003FFFF700000000000008C
:1023E0000000000001FFFF6000000000000000008E
:1023F000000000FFFF60000000000000000000007F
:10240000007FFFC000000000000000007800003FD7
:10241000FFC00FC0FC00000000007818001FFFC0C4
:102420003FE1FF0000000000783C000FFFC07FF399
:10243000FF8000000000783C0007FFC0FFFFFFC0E6
:1024400000000000783C0003FFC1F87F87E0000037
:10245000000078000001FFC1F03F03E00000000031
:1024600078000000FFC1E01E01E01F0003E0783C9F
:1024700003F07FC1E01E01E07FC00FF8783C07FC4D
:102480003FC1E01E01E1FFE01FFC783C0FFE1FC1D1
:10249000E01E01E3FFF03FFE783C1FFE0FC1E01E8F
:1024A00001E3F3F83F3E783C3F3F07C1E01E01E700
:1024B000E0FC7C1F783C3E1F07C1E01E01E7C07CAA
:1024C0007C0F783C3C0F03C1E01E01E7807C780F55
:1024D000783C3C0F03C1E01E01E7803C7800783C6B
:1024E0003C0F03C1E01E01E7803C7800783C3C0FC4
:1024F00003C1E01E01E7803C7800783C3C0F03C13B
:10250000E01E01E7C03C7800783C3C0F03C1E01EB0
:1025100001E3E03C78007C3C3C0F03C1E01E01E39A
:10252000FF3FF8007FBC3C0F03C1E01E01E1FF3F0D
:10253000F8003FBFFC0F03C1E01E01E0FF3FF800C1
:102540001FBFFC0F03C1E01E01E07F3FF8000FBF7B
:10255000FC0F03600000000000000000000000000D
:10256000076000000000000000000000000006708E
:102570000000000000000000000000000E38000015
:10258000000000000000000000001C1E0000000011
:102590000000000000000000780FFFFFFFFFFFFFBA
:1025A000FFFFFFFFFFFFF001FFFFFFFFFFFFFFFF48
:1025B000FFFFFFFF802020506C616E6E65724275D8
:1025C0006666657242797465733A200020467265CA
:1025D00065204D656D6F72793A2000436F6D7069AB
:1025E0006C65643A204665622020392032303230F2
:1025F0000A00204C61737420557064617465643AFC
:1026000020323031392D31322D3234207C20417549
:1026100074686F723A20287468697369736B6569AE
:102620007468622C20456E6465722D35290A00326B
:102630002E302E310A004D61726C696E0020536F8E
:102640006674776172652052657365740A0020575D
:1026500061746368646F672052657365740A002053
:1026600042726F776E206F75742052657365740ABD
:10267000002045787465726E616C205265736574D4
:102680000A00506F77657255700A00737461727436
:102690000A006175746F25632E67004732385859F8
:1026A000006572726F722077726974696E67207448
:1026B0006F2066696C650A00446F6E6520736176F1
:1026C000696E672066696C652E0A004D32390045D7
:1026D0006E6473746F707300255320256320256327
:1026E00020256320256300205A3A0020593A002013
:1026F000583A00656E6473746F7073206869743A39
:102700002000434F4D4D554E49434154494F4E00D3
:1027100044525952554E004552524F525300494E61
:10272000464F004543484F0070012C01900127019E
:10273000B0012201C0011D01F001180110021301B6
:1027400030020E016002090190020401C002FF0084
:102750000003FA004003F5008003F000D003EB0013
:102760002004E6007004E100E004DC004005D7002E
:10277000C005D2004006CD00D006C8008007C300C7
:102780003008BE00F008B900C009B400B00AAF00BC
:10279000B00BAA00D00CA500000EA000500F9B00AB
:1027A000C01096005012910000148C00C0158700D4
:1027B000B0178200B0197D00D01B7800001E730096
:1027C00040206E0090226900F024640040275F00E2
:1027D00090295A00E02B5500102E500020304B005D
:1027E00010324600E033410090353C00103737008E
:1027F00070383200A0392D00B03A2800A03B2300E9
:10280000603C1E00103D1900903D1400103E0F006A
:10281000703E0A00C03E0500003F0000403FFBFF45
:10282000803FF6FFC03FF1FF4D6F76652025736D49
:102830006D00004D6F766520302E316D6D004D6F4F
:10284000766520316D6D004D6F76652031306D6D90
:10285000004D6F7665204178697300486F74656E2E
:102860006420746F6F20636F6C64004578747275B8
:10287000646572004D6F7665205A004D6F76652055
:1028800059004D6F76652058005072696E7420664D
:10289000726F6D204D6564696100496E76616C6987
:1028A000642065787472756465720A0045455052FB
:1028B0004F4D204F4B0A00486F6D652025732573DF
:1028C0002573204669727374004F6666736574736E
:1028D000204170706C696564004572723A20546FD3
:1028E0006F206661722100546F6F206661722066EE
:1028F000726F6D207265666572656E636520706FBC
:10290000696E740A0000005C4300005C4300000034
:102910000064697300656E0043290A0061626C659A
:102920006420286D696E2074656D702000436F6CA3
:102930006420657874727564657320617265200027
:1029400020643A0020693A0020703A00496E7661AE
:102950006C69642065787472756465720A0020463B
:102960006C6F773A20004F4646004F4E00205800CB
:1029700020204D61783A2000200020204D696E3AD9
:102980002000536F667420656E6473746F70733AC1
:1029900020003F4A206F7574206F662072616E6759
:1029A000652028302E303120746F20302E33290AD4
:1029B00000205400205200416363656C65726174AD
:1029C000696F6E3A2050004D31343520533C696EAA
:1029D0006465783E206F7574206F662072616E6743
:1029E000652028302D31290A002F2F20004348412F
:1029F0004D4245525F54454D504552415455524504
:102A0000004D4F54494F4E5F4D4F4445530054487D
:102A100045524D414C5F50524F54454354494F4EDF
:102A2000004155544F5245504F52545F53445F53E9
:102A300054415455530050524F4D50545F535550CC
:102A4000504F525400454D455247454E43595F50F3
:102A5000415253455200434153455F4C4947485406
:102A60005F4252494748544E45535300544F4747DD
:102A70004C455F4C494748545300534F46545741C7
:102A800052455F504F574552004255494C445F50A4
:102A9000455243454E54004C4556454C494E475FC0
:102AA00044415441005A5F50524F424500415554F1
:102AB0004F4C4556454C005052494E545F4A4F4288
:102AC0000050524F4752455353004155544F5245C1
:102AD000504F52545F54454D5000564F4C554D4544
:102AE0005452494300454550524F4D0042494E41D2
:102AF00052595F46494C455F5452414E53464552E8
:102B00000053455249414C5F584F4E5F584F46461F
:102B1000004649524D574152455F4E414D453A4D51
:102B200061726C696E20322E302E31202847697414
:102B30004875622920534F555243455F434F4445E2
:102B40005F55524C3A68747470733A2F2F676974EA
:102B50006875622E636F6D2F4D61726C696E466988
:102B6000726D776172652F4D61726C696E20505283
:102B70004F544F434F4C5F56455253494F4E3A3195
:102B80002E30204D414348494E455F545950453AF7
:102B9000456E6465722D3520455854525544455252
:102BA0005F434F554E543A3120555549443A636579
:102BB0006465326132662D343161322D34373438F8
:102BC0002D396231322D633535633632663336370F
:102BD00066660A00456E6465722D35204F46462EA6
:102BE0000020573A0042656420436F6F6C696E673E
:102BF0002E2E2E004265642048656174696E672E32
:102C00002E2E004D3131332053004D3131322053BF
:102C1000687574646F776E006F66660023271E27E1
:102C200017271027022744454255473A006F6B008B
:102C300050726F7465637465642050696E0A002574
:102C400069730025696D2025697300256968202551
:102C5000696D202569730025696420256968202530
:102C6000696D20256973002569792025696420250F
:102C700069682025696D20256973005072696E743A
:102C80002074696D653A20002E0A0044656C6574F5
:102C9000696F6E206661696C65642C2046696C659D
:102CA0003A200046696C652064656C657465643A19
:102CB00000286E6F2066696C652900437572726525
:102CC0006E742066696C653A200053442070726906
:102CD0006E74696E67206279746520004E6F74208F
:102CE0005344207072696E74696E670A00456E64A1
:102CF0002066696C65206C6973740A0042656769B7
:102D00006E2066696C65206C6973740A004E6F20D2
:102D10004D6F76652E00436C69636B20746F205293
:102D20006573756D652E2E2E000000A0410000A079
:102D3000410000804000005C4300005C43000096BE
:102D4000430101FF536C6565702E2E2E0047322F14
:102D500047332062616420706172616D65746572D1
:102D6000730A0020746F6F206C6F6E672065787433
:102D7000727573696F6E2070726576656E746564C6
:102D80000A0020636F6C6420657874727573696FD4
:102D90006E2070726576656E7465640A00220A00A2
:102DA000556E6B6E6F776E20636F6D6D616E643AFA
:102DB00020220020746F6F206C6F6E67206578741E
:102DC000727573696F6E2070726576656E74656476
:102DD0000A0020636F6C6420657874727573696F84
:102DE0006E2070726576656E7465640A0020450019
:102DF000205A00205900204D39322058002E0A0058
:102E00006F70656E206661696C65642C2046696C24
:102E1000653A2000BAE3D7DD11241FBECFEFD0E41E
:102E2000DEBFCDBF12E0A0E0B1E0EEE6F7EE01E0DC
:102E30000BBF02C007900D92A433B107D9F722E16E
:102E4000A4E3B2E001C01D92A93DB207E1F717E18A
:102E5000CBE0D7E104C02197FE010E9413F3CA30F2
:102E6000D107C9F70E94F1DD0C94AAF30C9400007D
:102E70008F929F92AF92BF92CF92DF92EF92FF928A
:102E8000CF93FC01C080D180E280F38020E030E06D
:102E9000A901C701B6010E942EE987FF93C0C701AF
:102EA000B601905820E030E048EC52E40E9494E9EA
:102EB00020E030E040EA50E40E94B3EF20E030E050
:102EC00040E251E40E94ADF00E941FF16B017C01D1
:102ED00080E28093E60660E2F0E1CF16F7E2DF06DB
:102EE000E104F1048CF0C701B60120E137E240E0D3
:102EF00050E00E94F4F2CA01B9012AE030E040E05B
:102F000050E00E94F4F2605D6093E70660E288EEB4
:102F1000C81683E0D806E104F1048CF0C701B601BD
:102F200028EE33E040E050E00E94F4F2CA01B9011B
:102F30002AE030E040E050E00E94F4F2605D6093EF
:102F4000E80660E2E4E6CE16D104E104F1048CF078
:102F5000C701B60124E630E040E050E00E94F4F200
:102F6000CA01B9012AE030E040E050E00E94F4F2EA
:102F7000605D6093E9068AE0882E912CA12CB12C2B
:102F8000C701B601A50194010E94F4F2C62FCA013F
:102F9000B901A50194010E94F4F2605D6093EA0614
:102FA0008EE28093EB06C05DC093EC0686EE96E061
:102FB000CF91FF90EF90DF90CF90BF90AF909F9018
:102FC0008F90089520E030E048EC52E4C701B6014C
:102FD0006DCF8F929F92AF92BF92CF92DF92EF927E
:102FE000FF92CF93FC01C080D180E280F38020E08B
:102FF00030E04AE754E4C701B6010E9494E94B016E
:103000005C0120E030E0A901C701B6010E942EE971
:1030100020E030E040EA50E487FF04C020E030E0E8
:1030200040EA50ECC501B4010E94B3EF20E030E06B
:1030300040E251E40E94ADF00E941FF16B017C015F
:103040008BE2F7FE09C0F094E094D094C094C11CC8
:10305000D11CE11CF11C8DE28093E606C701B6018C
:1030600020E137E240E050E00E94F4F28AE0882E4E
:10307000912CA12CB12CCA01B901A50194010E9487
:10308000F4F2605D6093E706C701B60128EE33E015
:1030900040E050E00E94F4F2CA01B901A501940198
:1030A0000E94F4F2605D6093E806C701B60124E671
:1030B00030E040E050E00E94F4F2CA01B901A501FD
:1030C00094010E94F4F2605D6093E9068EE28093C1
:1030D000EA06C701B601A50194010E94F4F2C62FC9
:1030E000CA01B901A50194010E94F4F2605D6093E8
:1030F000EB06C05DC093EC0686EE96E0CF91FF90A4
:10310000EF90DF90CF90BF90AF909F908F900895F9
:10311000CF92DF92EF92FF92FC01C080D180E280DB
:10312000F38020E030E0A901C701B6010E942EE93A
:1031300087FF69C0C701B601905820E030E040E247
:1031400051E40E9494E920E030E040EA50E40E941B
:10315000B3EF20E030E040E251E40E94ADF00E9485
:103160001FF1FB01E03187E2F80708F453C0CF01FB
:1031700060E177E20E94CCF280E3860F8093E8065C
:10318000E83E83E0F80708F447C0CF0168EE73E03B
:103190000E94CCF2CB016AE070E00E94CCF2805D2C
:1031A0008093E90680E2E436F10558F0CF0164E649
:1031B00070E00E94CCF2CB016AE070E00E94CCF299
:1031C000805D8093EA0680E2EA30F10558F02AE05B
:1031D00030E0CF01B9010E94CCF2CB01B9010E94CD
:1031E000CCF2805D8093EB06CF016AE070E00E9434
:1031F000CCF2805D8093EC0688EE96E0FF90EF9035
:10320000DF90CF90089520E030E040E251E4C70124
:10321000B60197CF80E2B2CF80E2C2CF8F929F9269
:10322000AF92BF92CF92DF92EF92FF92FC01C080EB
:10323000D180E280F38020E030E048EC52E4C70126
:10324000B6010E9494E94B015C0120E030E0A90145
:10325000C701B6010E942EE920E030E040EA50E4C8
:1032600087FF04C020E030E040EA50ECC501B40123
:103270000E94B3EF20E030E040E251E40E94ADF064
:103280000E941FF19B018BE237FF05C022273327E5
:10329000261B370B8DE28093E706C90168EE73E0C9
:1032A0000E94E0F2CB01EAE0F0E0BF010E94E0F210
:1032B000805D8093E806C90164E670E00E94E0F258
:1032C000CB01BF010E94E0F2805D8093E906C90155
:1032D000BF010E94E0F2282FCB01BF010E94E0F263
:1032E000805D8093EA068EE28093EB06205D20935A
:1032F000EC0687EE96E0FF90EF90DF90CF90BF90C6
:10330000AF909F908F9008958F929F92AF92BF92AF
:10331000CF92DF92EF92FF92CF93FC01C080D180D9
:10332000E280F38020E030E04AE754E4C701B601D0
:103330000E9494E94B015C0120E030E040E251EC56
:10334000C701B6010E942EE9181654F420E030E0BF
:1033500048EC52E4C701B6010E9413F287FD86C013
:1033600020E030E0A901C701B6010E942EE987FFE5
:103370006EC060E070E080EA90ECA50194010E94CC
:10338000B3EF20E030E040E251E40E94ADF00E9453
:103390001FF16B017C01F7FC5FC020E137E240E0E8
:1033A00050E00E94F4F2CA01B9012AE030E040E0A6
:1033B00050E00E94F4F2605D6093E706C701B60139
:1033C00028EE33E040E050E00E94F4F29AE0892ECB
:1033D000912CA12CB12CCA01B901A50194010E9424
:1033E000F4F2605D6093E806C701B60124E630E0C0
:1033F00040E050E00E94F4F2CA01B901A501940135
:103400000E94F4F2605D6093E9068EE28093EA0622
:10341000C701B601A50194010E94F4F2C62FCA01AA
:10342000B901A50194010E94F4F2605D6093EB067E
:10343000C05DC093EC0687EE96E0CF91FF90EF90D1
:10344000DF90CF90BF90AF909F908F90089560E0F5
:1034500070E080EA90E491CFF094E094D094C0942E
:10346000C11CD11CE11CF11C6DE2A6CF20E030E0B4
:10347000A901C701B6010E942EE987FF6AC060E07A
:1034800070E080EA90ECA50194010E94B3EF20E087
:1034900030E040E251E40E94ADF00E941FF14B0188
:1034A0005C0120E030E0A901C701B6010E9413F2DF
:1034B00087FD0BC020E030E040E251E4C701B601D7
:1034C0000E942EE960E287FD13C0B7FC47C0C5012A
:1034D000B40128EE33E040E050E00E94F4F2CA016B
:1034E000B9012AE030E040E050E00E94F4F2605D73
:1034F0006093E806C501B40124E630E040E050E006
:103500000E94F4F28AE0C82ED12CE12CF12CCA01E1
:10351000B901A70196010E94F4F2605D6093E9068B
:103520008EE28093EA06C501B401A70196010E94CC
:10353000F4F2C62FCA01B901A70196010E94F4F264
:10354000605D6093EB06C05DC093EC0688EE96E08C
:1035500074CF60E070E080EA90E495CFB094A094DE
:1035600090948094811C911CA11CB11C6DE2C0CF71
:103570009C0197FF26C0EE27FF27E81BF90B2D398A
:103580008FEF38070CF05DC08DE28093E906CF0124
:1035900064E670E00E94E0F2CB012AE030E0B9017D
:1035A0000E94E0F2805D8093EA06CF01B9010E949B
:1035B000E0F2CB01B9010E94E0F2805D8093EB065E
:1035C0002AC0283E83E03807B4F1C90168EE73E0F1
:1035D0000E94E0F2CB01EAE0F0E0BF010E94E0F2DD
:1035E000805D8093E906C90164E670E00E94E0F224
:1035F000CB01BF010E94E0F2805D8093EA06C90121
:10360000BF010E94E0F2CB01BF010E94E0F2805DA9
:103610008093EB06F901CF016AE070E00E94E0F2CE
:10362000805D8093EC0689EE96E008958DE237FD8B
:10363000C5CF80E2C3CFF90180E2243631050CF01A
:10364000A4CF80E28093E9068093EA06EA30F10590
:103650006CF38DE237FF80E28093EA06CF016AE0E7
:1036600070E00E94E0F2605D6093EB06D4CF9C01B5
:1036700097FD2DC080E2243631055CF0C90164E677
:1036800070E00E94E0F2CB016AE070E00E94E0F29C
:10369000805D8093EA0680E22A3031055CF0EAE042
:1036A000F0E0C901BF010E94E0F2CB01BF010E941E
:1036B000E0F2805D8093EB06C9016AE070E00E9451
:1036C000E0F2805D8093EC068AEE96E008953195F5
:1036D000219531098DE2DDCF24E6829FC0011124BE
:1036E00081589F4F6FEF70E00E94E0F2262F81E338
:1036F000643609F080E28093E90690E22A3040F0D7
:103700003AE0822F632F0E94C0F20E94C0F2905DC7
:103710009093EA06822F6AE00E94C0F2905D909337
:10372000EB0685E28093EC0689EE96E00895FC01B5
:10373000A081B1811C92A281B3818C918F5F8C9307
:103740000280F381E02D90818CE0989F800D112400
:10375000E4E1F0E113AE84AF089560912C01709123
:103760002D01072E000C880B990B0E9435E92AE0E9
:1037700037ED43E25CE30E9494E9209146073091E3
:10378000470740914807509149070E9494E9609388
:1037900065017093660180936701909368010895B5
:1037A0008091A7038093D80708958091A703809301
:1037B000D80708950C94F629809165118823C1F0EB
:1037C000815080936511E6ECFFE0882351F0815031
:1037D000990B2BE1289FF001299FF00D1124E95A44
:1037E000FF4E8BE1ABEABFE001900D928A95E1F7C5
:1037F00020916511211105C080916F118062809325
:103800006F1181E090E0A0E0B0E0211103C080E002
:1038100090E0DC018093D5069093D606A093D7065E
:10382000B093D8061092C80681E08093E50683E045
:1038300080934D0108952CEA35EC47E25EE36091F8
:103840008D0370918E0380918F03909190030E945D
:10385000ADF06093690F70936A0F80936B0F909334
:103860006C0F08952CEA35EC47E25EE3609191031A
:103870007091920380919303909194030E9494E934
:103880006093650F7093660F8093670F9093680F36
:1038900008958091E40F9091E50F891B8F7051F48A
:1038A00080917D07813031F080916F1182FB8827F4
:1038B00080F9089581E00895CF93DF93EC01CB0167
:1038C000BA010E9435E920E030E048EC51E40E9462
:1038D00094E90E9426F1688379838A839B83DF9130
:1038E000CF910895CF93DF9300D000D0CDB7DEB74E
:1038F0000E9435E92AE037ED43E25CE30E9494E957
:1039000069837A838B839C83CE0101960E94E91799
:103910000F900F900F900F90DF91CF910895CF935C
:10392000DF93EC01CB01BA010E9435E92AE037EDC3
:1039300043E25CE30E9494E9688379838A839B83F2
:10394000DF91CF910895CF93DF93EC01CB01BA01C2
:103950000E9435E92AE037ED43E25CE30E9494E9F6
:10396000688379838A839B83DF91CF910895CF9376
:10397000DF93EC01CB01BA010E9435E92DEC3CEC60
:103980004CEC5DE30E9494E9688379838A839B838E
:10399000DF91CF910895CF93DF9300D000D0CDB7C2
:1039A000DEB70E9435E92DEC3CEC4CEC5DE30E9467
:1039B00094E969837A838B839C83CE0101960E946C
:1039C00038170F900F900F900F90DF91CF910895BF
:1039D000CF93DF93EC01CB01BA010E9435E920E0DF
:1039E00030E048EC51E40E9494E9688379838A834B
:1039F0009B83DF91CF910895CF93DF9300D000D0C8
:103A0000CDB7DEB70E9435E920E030E048EC51E464
:103A10000E9494E969837A838B839C83CE0101960B
:103A20000E9488180F900F900F900F90DF91CF9108
:103A30000895CF93DF9300D000D0CDB7DEB70E94BA
:103A400035E969837A838B839C83CE0101960E943A
:103A500088180F900F900F900F90DF91CF910895DD
:103A6000CF93DF93EC01CB01BA010E9435E9688363
:103A700079838A839B83DF91CF910895CF93DF93DE
:103A8000EC01CB01BA010E9435E9688379838A830E
:103A90009B83DF91CF910895CF93DF93EC01CB010E
:103AA000BA010E9435E92FE632E143E85AE30E9469
:103AB00094E9688379838A839B83DF91CF9108950A
:103AC000CF93DF9300D000D0CDB7DEB70E9435E9A9
:103AD0002AE037ED43E25CE30E9494E969837A834C
:103AE0008B839C83CE0101960E9484190F900F90C6
:103AF0000F900F90DF91CF9108950E9435E90E94B9
:103B00001FF1CB010C94371BCF93DF93EC01CB015A
:103B1000BA010E9435E90E941FF179836883DF9121
:103B2000CF9108950E9435E923E333E343E250E463
:103B30000E9494E90E9426F1862F0C946C1BCF936F
:103B4000DF93EC01CB01BA010E9435E923E333E3B3
:103B500043E250E40E9494E90E9426F16883DF91D9
:103B6000CF910895CF93DF9300D000D0CDB7DEB7CB
:103B70000E9426F10E9433E969837A838B839C83B8
:103B8000CE0101960E9488180F900F900F900F9011
:103B9000DF91CF9108950E9435E920E030E048ECB4
:103BA00051E40E9494E90C94B21DCF92DF92EF92FF
:103BB000FF926B017C0120E030E0A9010E942EE918
:103BC00020E030E040E05FE387FF04C020E030E029
:103BD00040E05FEBC701B6010E94B3EF0E941FF106
:103BE000CB01FF90EF90DF90CF900C94371B0E9499
:103BF00035E90C94D51DFC0184910895FC01808168
:103C0000089511980000000087FD52C041980000FF
:103C10000000119A0000000011980000000086FDCD
:103C200053C0419800000000119A00000000119854
:103C30000000000085FD46C0419800000000119A78
:103C40000000000011980000000084FD39C0419878
:103C500000000000119A0000000011980000000010
:103C600083FD2CC0419800000000119A0000000064
:103C700011980000000082FD1FC041980000000064
:103C8000119A0000000011980000000081FD12C090
:103C9000419800000000119A0000000011980000F7
:103CA0000000419800000000119A000000000895F3
:103CB000419AADCF419AEDCF419AE0CF419AD3CF0F
:103CC000419AC6CF419AB9CF419AACCF089590E0BE
:103CD00080E0089590918304E92FF0E0EE5AFF4EC2
:103CE00080839F5F943040F4909383048091070613
:103CF0008F5F80930706089510928304F7CF282FD3
:103D00009091B507833021F495FD0FC094FD0FC04D
:103D1000892F90E0B0E0A0E004C0B695A7959795F4
:103D200087952A95D2F78170089581E0089580E003
:103D300008950C94B08D0C94B08D0C94B08D0C94AF
:103D4000B08D0C94148C0C94148C0C94148C0C94D6
:103D5000148CCF92DF92EF92FF92CF93C82F0E94E4
:103D600019746B017C0124EA30E74DE75FE3609151
:103D7000A3037091A4038091A5039091A6030E94D0
:103D80002EE987FD18C08AEF90E0A0E0B0E08C0D2E
:103D90009D1DAE1DBF1D8093D7039093D803A093A4
:103DA000D903B093DA03C0930401CF91FF90EF9051
:103DB000DF90CF90089580E090E0DC01E8CF8F9213
:103DC0009F92AF92BF92EF92FF920F931F93CF9368
:103DD000DF93EC018B01E42EF22E80911210909172
:103DE00013108C179D07C9F12AE5CB36D20709F0CD
:103DF0003FC08A59934571F40E9419746E517B4FEC
:103E00008F4F9F4F6093890370938A0380938B0336
:103E100090938C03D0931310C093121030E020E0E5
:103E20000093D5061093D6062093D7063093D80674
:103E3000E092C806F092C206CA59D34521F4109206
:103E4000DB031092880382E080934D0181E0809330
:103E5000E5061092E3031092D106DF91CF911F91F6
:103E60000F91FF90EF90BF90AF909F908F9008952B
:103E700023E5CA39D20771F68B569A4519F0CAE97B
:103E8000D3E5C8CF0E9419748090890390908A036B
:103E9000A0908B03B0908C03681979098A099B095B
:103EA00097FFEDCFC0919F070E94491C882339F3EB
:103EB000C770C73021F7CEE5DFE1ACCF20E040E0AE
:103EC00070E060E08AE898E30E94DF1E81E0809362
:103ED000DB031092450710924407089521E02093D8
:103EE000DB036093A3037093A4038093A5039093D3
:103EF000A60320E040E070E060E08091C906909168
:103F0000CA060C94DF1E6DEC7CEC8CEC9CE30C94EC
:103F10006E1F6DEC7CEC8CEC9DE30C946E1F60E0EE
:103F200070E080E89FE30C946E1F60E070E080E238
:103F300091E40C946E1F2F923F924F925F926F927A
:103F40007F928F929F92AF92BF92CF92DF92EF9229
:103F5000FF920F931F93CF93DF9300D000D000D038
:103F6000CDB7DEB70E9419740091FA0F1091FB0FC4
:103F70002091FC0F3091FD0F011511052105310530
:103F800009F07CC220910010222309F44AC0E0917C
:103F9000FE0F21502093001021E02E0F2093FE0FE2
:103FA00030910110231302C01092FE0F24E0E29F13
:103FB000F0011124EE5FFF4E0081118122813381D7
:103FC0000093F60F1093F70F2093F80F3093F90F2B
:103FD000600F711F811D911D6093FA0F7093FB0F8D
:103FE0008093FC0F9093FD0F8091F80F9091F90F43
:103FF000892BB9F08FB78E83F8942090F60F30900C
:10400000F70F2101712C612C0091F80F1091F90F1D
:10401000809118018B31F1F08F3F09F496C09E8199
:104020009FBF26960FB6F894DEBF0FBECDBFDF91BF
:10403000CF911F910F91FF90EF90DF90CF90BF90A5
:10404000AF909F908F907F906F905F904F903F9038
:104050002F900895E8E0F1E294919D8397FDDFCFE2
:1040600061E08BE10E943D738D81882321F09D8169
:10407000923009F071C14801B12CA12C60E072E1CD
:104080008AE790E0A50198010E94F4F229833A831F
:104090004B835C8369017A0121E0C21AD108E108EF
:1040A000F1088FEFC816D104E104F10409F00CF413
:1040B0002AC160E472E48FE090E0A50198010E94BB
:1040C000F4F269017A0191E0C91AD108E108F10816
:1040D0002D81223009F0CBC08FEFC816D104E10446
:1040E000F10409F00CF432C260E970ED83E090E075
:1040F000A50198010E94F4F269017A0191E0C91AC0
:10410000D108E108F10883E02FEFC216D104E104E1
:10411000F10409F00CF4EEC168E478EE81E090E07F
:10412000A50198010E94F4F269017A0191E0C91A8F
:10413000D108E108F1082FEFC216D104E104F1041F
:1041400011F00CF0B8C084E0D5C18BE18093180168
:10415000E8E0F1E224912D832F3F09F460CF213074
:1041600041F170F0223009F442C0233009F461C0FB
:104170002D8127FD54CF61E08BE10E943D7377CF05
:1041800014BC15BC84B5826084BD85B5816085BDD5
:10419000E3ECF0E2E491F0E0EE0FFF1FEC56FF4D90
:1041A00085919491E3EEF0E2E491E093F6031D82B1
:1041B00057CF10928000109281008091810088601A
:1041C0008093810080918100816080938100E3EC85
:1041D000F0E2E491F0E0EE0FFF1FEC56FF4D859109
:1041E0009491E3EEF0E2E491E093F50339CF10927D
:1041F000B0001092B1008091B00082608093B00056
:104200008091B10081608093B100E3ECF0E2E49131
:10421000F0E0EE0FFF1FEC56FF4D859194919093C7
:104220007C0480937B04E3EEF0E2E491E0937D0470
:1042300017CF1092900010929100809191008860A9
:104240008093910080919100816080939100E3ECD4
:10425000F0E2E491F0E0EE0FFF1FEC56FF4D859188
:104260009491E3EEF0E2E491E093F403F9CE8FEF62
:10427000C816D104E104F10409F00CF46BC068E441
:1042800078EE81E090E0A50198010E94F4F26901C6
:104290007A0191E0C91AD108E108F1082D812223A1
:1042A00009F42FC12FEFC216D104E104F10411F07B
:1042B0000CF030C148CF64E274EF80E090E0A501DB
:1042C00094010E94F4F269017A0181E0C81AD108D0
:1042D000E108F10885E09FEFC916D104E104F1047B
:1042E00009F008F407C162E17AE780E090E0A501F7
:1042F00094010E94F4F269017A0181E0C81AD108A0
:10430000E108F1081AC181E02D812111F3C095B5B2
:10431000987F892B85BD2FEF3FEFA90145284628BF
:10432000472809F042C09D81913009F485C00CF006
:104330007DC0911174CEC7BC2093FF03309300045D
:10434000409301045093020480916E008260809338
:104350006E0065CE82E0D8CFB12CA12C60E072E176
:104360008AE790E0A50198010E94F4F269017A01C0
:1043700081E0C81AD108E108F108C114D10491E024
:10438000E906F104FCF491E02D81213061F5809182
:104390008100887F892B809381002FEF3FEFA90157
:1043A00045284628472809F447C09801220F331FA3
:1043B000D1010E94A3EF28EE33E040E050E00E94DC
:1043C00076EFB1CF68E478EE81E090E0A501980146
:1043D0000E94F4F269017A0181E0C81AD108E1086B
:1043E000F10893E0D1CF8D81833009F094CF809193
:1043F0009100887F892B809391002FEF3FEFA901D7
:1044000045284628472889F6D0929900C0929800FE
:104410002093F7033093F8034093F9035093FA0382
:1044200080917100826080937100F9CD8D8182301E
:10443000A9F0833049F3F3CDD0928900C09288006F
:104440002093FB033093FC034093FD035093FE0342
:1044500080916F00826080936F00E1CDC092B300C5
:1044600020937E0430937F04409380045093810412
:1044700080917000826080937000D1CD601B710BC1
:10448000820B930B97FDCDCD14981092FA0F1092DA
:10449000FB0F1092FC0F1092FD0FC3CD84E09FEF35
:1044A000C916D104E104F10409F008F430CFC98041
:1044B000DA80EB80FC809AE0F594E794D794C79477
:1044C0009A95D1F781E0C81AD108E108F10885E092
:1044D0001ECFC980DA80EB80FC808AE0F594E794F7
:1044E000D794C7948A95D1F721E0C21AD108E10880
:1044F000F10887E09091B100987F892B8093B100FB
:104500000ACF83E09FEFC916D104E104F10409F05A
:104510000CF4FDCE62E17AE780E090E0A501940121
:104520000E94F4F269017A0181E0C81AD108E10819
:10453000F1089D81992309F4B1CF8FEFC816D104FA
:10454000E104F10409F028F686E0D4CF82E0D2CF6E
:10455000CF93DF93CDB7DEB720E24F8158856E81D0
:104560008D810E944DBEDF91CF9108950C9499A941
:104570000C9499A966E979E383E00C944EDB64E43A
:104580007BE382E00C944EDB69E47BE381E00C94F6
:104590004EDB6EE47BE380E00C944EDBCF93DF9345
:1045A00000D000D0CDB7DEB70E9435E92FE632E16A
:1045B00043E85AE30E9494E969837A838B839C835E
:1045C000CE0101960E94E4BE0F900F900F900F90C5
:1045D000DF91CF910895EF92FF920F931F9386EE94
:1045E000E82E89E0F82E10E000E025E73AE04EEDF5
:1045F00059E268EE79E08DEE99E00E940CC21F91BD
:104600000F91FF90EF900895EF92FF920F931F93F9
:104610008AEDE82E87E0F82E10E000E02DEE37E07E
:1046200046E758E26CED77E083EE97E00E940CC21B
:104630001F910F91FF90EF900895CF92DF92EF922C
:10464000FF920F931F93CF93DF93CDB7DEB7CDB615
:10465000DEB68091FD0660EF76E0882311F06DEF05
:1046600076E0FB0101900020E9F7CF01861B970B54
:1046700001962DB73EB7281B390B0FB6F8943EBFF5
:104680000FBE2DBF0DB71EB70F5F1F4F80E2EDB7F6
:10469000FEB78183C80101960E947BF388E9E82E6A
:1046A0008AE0F82E2AE93AE044E35DE566EA7AE03A
:1046B0008DEA9AE00E940CC20FB6F894DEBE0FBEDF
:1046C000CDBEDF91CF911F910F91FF90EF90DF90C2
:1046D000CF900895AF92BF92CF92DF92EF92FF9268
:1046E0000F931F93CF93DF936B01E9014A3009F4D5
:1046F000B8C0453109F06AC0DB011296ED91FC911A
:10470000F280C681D781139A88E28A950000E9F782
:10471000BF2CB29420EFB22230E1A32EAF0C48E2BE
:10472000E42E88EF0E94011E8E2D8A950000E9F785
:10473000BFE1BF1508F481C08F2D807780680E948B
:10474000011E8B2D0E94011E8E2D8A950000E9F717
:1047500080E80E94011E80E00E94011E8E2D8A9535
:104760000000E9F78AEF0E94011E8E2D8A95000055
:10477000E9F78E01005F1F4F8881807F0E94011E34
:1047800089918295807F0E94011EC017D107A1F7F1
:104790008E2D8A950000E9F7F394E0E1BE0EFA1041
:1047A000C0CF1398D6011296CD91DC91CE010E9414
:1047B00038758111EEC1DF91CF911F910F91FF905C
:1047C000EF90DF90CF90BF90AF900895FB010281F2
:1047D0001381423309F498C108F49CC1463409F4AA
:1047E00089C1473409F48CC14B3329F589812B8168
:1047F000D80112966C91129713964C91213009F4BE
:10480000DFC1233009F0A9C138EF380F582F91E0EC
:10481000431708F490E041E0531708F040E031E01E
:10482000561708F430E0592F542B352309F0BDC139
:10483000942309F0BAC181E0BECF80EE8F0D80686D
:10484000807F0E94011E8F2D8295807F0E94011E15
:104850008E2D8A950000E9F780E80E94011E80E80D
:104860007BCF0B9A1398399A4198099A119A139A07
:1048700088E28A950000E9F788E790E0CEE9DFE07A
:10488000FE013197F1F70197D9F788EF0E94011ED9
:1048900018E2812F8A950000E9F780E20E94011E4C
:1048A00080E00E94011E812F8A950000E9F780E0D8
:1048B0000E94011E80E80E94011E812F8A9500003F
:1048C000E9F780E00E94011E80E10E94011E812F15
:1048D0008A950000E9F7CE010197F1F7CE01019723
:1048E000F1F7CE010197F1F7CE010197F1F7CE0173
:1048F0000197F1F7CE010197F1F7CE010197F1F79A
:10490000CE010197F1F7CE010197F1F7CE010197A2
:10491000F1F7CE010197F1F7CE010197F1F7CE0142
:104920000197F1F7CE010197F1F72197F1F780E2B6
:104930000E94011E80E40E94011E812F8A950000C2
:10494000E9F780E20E94011E80E60E94011E1A958E
:104950000000E9F710E0D0E0C8E28D2F8077806892
:104960000E94011E812F0E94011E8C2F8A9500003B
:10497000E9F780E80E94011E80E00E94011E8C2F52
:104980008A950000E9F78AEF0E94011E8C2F8A9514
:104990000000E9F780E21198000000004198000053
:1049A0000000119A000000001198000000004198DA
:1049B00000000000119A00000000119800000000A3
:1049C000419800000000119A0000000011980000BA
:1049D0000000419800000000119A000000001198AA
:1049E00000000000419800000000119A0000000043
:1049F000119800000000419800000000119A00008A
:104A00000000119800000000419800000000119A79
:104A10000000000011980000000041980000000014
:104A2000119A000000001198000000004198000059
:104A30000000119A00000000119800000000419849
:104A400000000000119A0000000011980000000012
:104A5000419800000000119A000000001198000029
:104A60000000419800000000119A00000000119819
:104A700000000000419800000000119A00000000B2
:104A8000119800000000419800000000119A0000F9
:104A90000000119800000000419800000000119AE9
:104AA0000000000011980000000041980000000084
:104AB000119A000000009C2F9A950000E9F78150A0
:104AC00009F069CF88EF0E94011E8C2F8A950000A3
:104AD000E9F7DF5F105FD03209F03FCF80E00E943E
:104AE000011E80EC0E94011ECA950000E9F7139890
:104AF00081E061CED80115968C91888381E05BCEF0
:104B0000F80181818883FACFB901C8010E9422751A
:104B100081E051CE443171F0473109F08CCE1882DA
:104B2000F80182818983858181508A8383818B8387
:104B300081E041CED80115964C91159750E0440F75
:104B4000551F70E060E016968D919C910E9442F393
:104B5000C8010E944E7581E02ECE481708F46BCE36
:104B6000861708F468CEFA80E12CD12C243070F43A
:104B70001DC0BE01C8010E942275898198819D0DCA
:104B800098838E0D8983FF0C09F455CEF7FEF6CF7E
:104B9000F0CF4D8150E0440F551F70E060E08E81F2
:104BA0009F810E9442F381E006CEFA8030E0F90155
:104BB000EB58FE4FD0802F583E4FF901E080E6CFF2
:104BC00058E0580F382F23CEDF92EF92FF920F93C9
:104BD0001F93CF93DF93EC01D62E1CAD0BAD7C0160
:104BE00084E0E80EF11CE98DFA8DC7010995412F8B
:104BF000480F2D2D602FC7010E946C779BAD890F48
:104C00008BAF81E090E0DF91CF911F910F91FF90EA
:104C1000EF90DF9008958F929F92AF92BF92CF92C4
:104C2000DF92EF92FF920F931F93CF93DF93EC01EC
:104C30008B017A018A859B858617970731F08881D9
:104C400099810E9407761B870A8788859985019636
:104C500041F50C81DA808E81D80EA880B980D5010B
:104C60005596ED91FC91C5010995080F10E0F701EB
:104C700021917F0121114FC08E819F81810F911D54
:104C80009F838E8390E080E0DF91CF911F910F9101
:104C9000FF90EF90DF90CF90BF90AF909F908F905C
:104CA0000895CE80DF80F701008110E0002321F11C
:104CB000A880B980602FC5010E945F76D50151960A
:104CC0001C9111954701BFEF8B1A9B0AF40181914A
:104CD0004F01882351F0D50150969C91190F082F50
:104CE000682FC5010E945F76F1CF003281F0F50197
:104CF00083899189890F180FC10ED11C28853985A8
:104D00002C153D0508F0A5CF81E090E0BDCFD50181
:104D100050968C91F0CF402F6D2DC5010E946C777D
:104D2000D80E180FA4CFEF92FF920F931F93CF933B
:104D3000DF93CDB7DEB72C970FB6F894DEBF0FBE6A
:104D4000CDBF10914F10009150102091AB03211155
:104D50001BC042E856E0602F812F0E94EDAA90E030
:104D600080E0180F10934F100093501099272C9645
:104D70000FB6F894DEBF0FBECDBFDF91CF911F916C
:104D80000F91FF90EF900895E0901C10F0901D108F
:104D900028E130E13A832983212F30E03C832B83C3
:104DA000202F30E03E832D8318861F827A87698703
:104DB0001C861B869E012F5F3F4F4BEF5DE1BC01C0
:104DC000C7010E94B2AAB70188E190E10E9407766C
:104DD0008F819885C6CF2F923F924F925F926F92AC
:104DE0007F928F929F92AF92BF92CF92DF92EF927B
:104DF000FF920F931F93CF93DF9300D01F92CDB7F5
:104E0000DEB78090540190905501A0905601B0906B
:104E10005701409058015090590160905A0170908C
:104E20005B01C0905C01D0905D01E0905E01F0906C
:104E30005F010E94148C0E94437002E31DE08FE228
:104E400091E09B838A8386E2282E8DE0382E19829A
:104E500089810E946397F80185919591A591B491FC
:104E6000EA81FB8181939193A193B193FB83EA83C0
:104E7000F10185919591A591B491EA81FB8180879B
:104E80009187A287B387F981FF5FF9830C5F1F4F7A
:104E900084E0280E311CF330D9F60E94B08DA501B4
:104EA0009401609154017091550180915601909147
:104EB00057010E942EE981111CC0A301920160914B
:104EC00058017091590180915A0190915B010E94A3
:104ED0002EE981110EC020915C0130915D0140915D
:104EE0005E0150915F01C701B6010E942EE988233F
:104EF000B9F00F900F900F90DF91CF911F910F910C
:104F0000FF90EF90DF90CF90BF90AF909F908F90E9
:104F10007F906F905F904F903F902F900C9461A086
:104F20000F900F900F90DF91CF911F910F91FF90F5
:104F3000EF90DF90CF90BF90AF909F908F907F9039
:104F40006F905F904F903F902F9008950F931F9315
:104F500080917D07813019F50E9419740091070432
:104F6000109108042091090430910A04601B710B10
:104F7000820B930B28EE33E040E050E00E9476EF86
:104F800060910304709104048091050490910604DB
:104F9000620F731F841F951F1F910F9108956091D9
:104FA000790770917A0780917B0790917C07D6CF23
:104FB00010927D07109207041092080410920904C1
:104FC00010920A041092790710927A0710927B07C8
:104FD00010927C07109203041092040410920504AE
:104FE00010920604089580917D078130F1F082309F
:104FF000C9F40E94A627609303047093040480936D
:1050000005049093060481E080937D070E94197443
:1050100060930704709308048093090490930A0432
:1050200081E008950E94D827EECF80E00895809116
:105030007D078150823070F410927D070E941974B0
:105040006093790770937A0780937B0790937C072E
:1050500081E0089580E008950F931F93CF93DF932D
:105060008C01EB019091001020910110921305C06A
:105070000E949B1F0E94A788F5CF8091FF0F34E00C
:10508000839FF0011124EE5FFF4E11830083D383D1
:10509000C2839F5F909300108F5F281739F0809331
:1050A000FF0FDF91CF911F910F9108951092FF0F85
:1050B000F8CF63E972E084E690E00E942C286AEB66
:1050C00072E084E690E00C942C2881110C9459280D
:1050D00068EB71E084E190E00C942C280E94C69B60
:1050E0000C9465280E94C4A80C946528CF930E9454
:1050F000E29A0E94C69BC82F882319F080E00E9484
:1051000016A18C2FCF910C9465280F931F93CF93EA
:10511000DF938C016F3F19F410924B0F60E02091E8
:105120004B0F862F062E000C990B2817190609F035
:1051300004F560934B0FC8010E947BE8800F911F1C
:10514000EC01C01BD10BC535D1053CF00197FC012A
:105150002491207C2038D1F3F3CFDD27AE01B801B4
:1051600086EF9EE00E949CE8CA50D14F18821092B0
:10517000F50EDF91CF911F910F910895CF93DF939B
:10518000CDB7DEB78D8190914B0F891778F0809362
:105190004B0F9E01285F3F4F4E815F8164E570E0B9
:1051A00086EF9EE00E94F5E81092F50EDF91CF9118
:1051B00008950F931F930E9419740091EE031091AC
:1051C000EF032091F0033091F103601B710B820B10
:1051D000930B97FD0CC089B183FB882780F991E080
:1051E00089274A9B8260309B84608093ED03809185
:1051F000ED0381709091ED0391FD82609091EC033D
:10520000981749F0813009F148F0823079F0833005
:1052100091F08093EC031F910F910895913079F0F4
:105220009230B9F79091EB0391500CC0992339F06B
:105230009330C1F3EECF9130A9F3923051F79091B2
:10524000EB039F5F9093EB03E4CF992359F39330E3
:1052500001F7F5CF81E08093AB03ECE4FFE081EC54
:105260009BE0918380831382128253985B9A5298B9
:105270005A9A3898409A82E08093E8030E94D9288D
:105280001092EB030895282F1092CF068091D50637
:105290009091D606A091D706B091D806B7FF08C066
:1052A0001092D5061092D6061092D7061092D80604
:1052B0008091DC03882331F08091D5068093C70666
:1052C0001092E5068091C2061816FCF4082E000C18
:1052D000990B821B91092091C706022E000C330BFB
:1052E0002817390794F097FF02C090E080E0809380
:1052F000C706092E000CAA0BBB0B8093D506909312
:10530000D606A093D706B093D8068091C706662329
:10531000A9F09091C806891714F48093C8062091CB
:10532000C806022E000C330B2C5F3F4F482F082E6F
:10533000000C550B241735071CF484508093C806C5
:105340000895E0918803E63010F581E08E0F809398
:1053500088034091D5065091D6066091D70670918A
:10536000D8069091C8068091C20628E0E29FF0011D
:105370001124E85AFC4F2091121030911310318300
:105380002083428353836483758396838783089540
:10539000CF93DF93EC010E94A12920E040E070E070
:1053A00060E0CE01DF91CF910C94DF1E20E040E061
:1053B00070E060E08AE993E50C94DF1E10928207AA
:1053C00010924C0180916F11806480936F110E9444
:1053D000172860E088E09DE00E9485280C94D6297B
:1053E0001092D8070E94D2850C94D629E0918803A8
:1053F000EE2389F0E150E093880388E0E89FF00114
:105400001124E85AFC4F6281738127814681808193
:1054100091810C94DF1E0C94D6298F929F92AF92AB
:10542000BF92CF92DF92EF92FF920F931F93CF9391
:10543000DF9361E081E00E944329C091C80685E0C6
:10544000982E9C0E9AE1E92E9BE0F92ED3E0DC1B0E
:105450002AE0C22E2BE0D22E12E01C1B3BE6A32E2C
:105460003BE0B32E01E00C1B8C2E8194C11133C0A4
:105470008091C7068823B1F080914D01882359F0AF
:1054800081E09091C706911180E024E04AE45BE05E
:10549000682D0E944DBECF5F9C12E8CF84E08093C0
:1054A000C2060CC08091D0061092D006882321F34A
:1054B0000E94F6298091E5068823F1F2DF91CF91D1
:1054C0001F910F91FF90EF90DF90CF90BF90AF9022
:1054D0009F908F900895C13051F58091C70681301B
:1054E00079F080914D018823B1F21F92BF92AF9263
:1054F0000F9381E09091C706913071F180E02CC04C
:105500008091D0061092D006882359F360915B07F2
:1055100070915C0740915F078091610790916207ED
:105520000E94DBC28091E5068823D9F2C7CFC23042
:1055300009F045C08091C7068230B9F080914D01D5
:10554000882309F4A8CF1F92DF92CF921F9381E0A6
:105550009091C706923091F68F930E94A8220F90E7
:105560000F900F900F900F9096CF8091D0061092D1
:10557000D006882319F340915F076FEF7FEF80918A
:105580006107909162070E94DBC28091E506882343
:10559000A9F294CF8091D0061092D0068823B1F062
:1055A00060915B0770915C0740915F0790E080E03D
:1055B0000E94DBC28091E506882341F07FCFC33093
:1055C00009F069CF8091C706833021F380914D01A6
:1055D000882309F460CF1F92FF92EF92DF9381E05E
:1055E0009091C706933009F089CFB6CF8F929F92E2
:1055F000AF92BF92CF92DF92EF92FF920F931F93E1
:10560000CF93DF9361E081E00E944329C091C806F7
:1056100085E0982E9C0E9AE3E92E9BE0F92ED3E0CC
:10562000DC1B2AE2C22E2BE0D22E12E01C1B3FE52F
:10563000A32E3BE0B32E01E00C1B8C2E8194C111F4
:1056400033C08091C7068823B1F080914D01882333
:1056500059F081E09091C706911180E024E04AE47E
:105660005BE0682D0E944DBECF5F9C12E8CF84E0C6
:105670008093C2060CC08091D0061092D006882379
:1056800021F30E94F6298091E5068823F1F2DF914B
:10569000CF911F910F91FF90EF90DF90CF90BF902F
:1056A000AF909F908F900895C13051F58091C706BB
:1056B000813079F080914D018823B1F21F92BF9221
:1056C000AF920F9381E09091C706913071F180E025
:1056D0002CC08091D0061092D006882359F3609197
:1056E0005D0770915E07409160078091630790911C
:1056F00064070E94DBC28091E5068823D9F2C7CFF8
:10570000C23009F045C08091C7068230B9F080915F
:105710004D01882309F4A8CF1F92DF92CF921F93E7
:1057200081E09091C706923091F68F930E94A82253
:105730000F900F900F900F900F9096CF8091D00602
:105740001092D006882319F3409160076FEF7FEF26
:1057500080916307909164070E94DBC28091E50607
:105760008823A9F294CF8091D0061092D006882386
:10577000B1F060915D0770915E074091600790E025
:1057800080E00E94DBC28091E506882341F07FCF54
:10579000C33009F069CF8091C706833021F380912F
:1057A0004D01882309F460CF1F92FF92EF92DF939F
:1057B00081E09091C706933009F089CFB6CFAF92C0
:1057C000BF92CF92DF92EF92FF920F931F93CF93EE
:1057D000DF9361E081E00E944329C091C80685E023
:1057E000B82EBC0E92EEE92E9AE0F92ED3E0DC1B27
:1057F00027EFC22E2AE0D22E12E01C1B01E00C1B68
:10580000AC2EA194C11131C08091C7068823B1F09C
:1058100080914D01882359F081E09091C706911144
:1058200080E024E045E05BE06A2D0E944DBECF5F42
:10583000CB11E8CF84E08093C2060CC08091D006E3
:105840001092D006882321F30E94F6298091E50664
:105850008823F1F2DF91CF911F910F91FF90EF908C
:10586000DF90CF90BF90AF900895C13011F5809137
:10587000C706813079F080914D018823C1F281E023
:105880009091C706913009F080E023E041E558E2AD
:10589000602FCBCF8091D0061092D006882359F389
:1058A00080EA9CE20E94C8298091E506882319F3CA
:1058B000D1CFC23081F59091C706923071F08091BE
:1058C0004D01882309F4B3CF81E0923009F080E0E4
:1058D00020E24BEF5AE0612FA8CF8091D0061092C2
:1058E000D006882361F3D0928504C092840480910D
:1058F000E506882321F3AECF8091D0061092D00622
:10590000882381F0F0928504E09284048091E5067A
:10591000882341F09FCFC33009F089CF9091C7060B
:10592000933051F380914D01882309F480CF81E0B9
:10593000933009F080E020E246EE5AE06D2F75CFFB
:10594000DF92EF92FF920F931F93CF93DF9361E06B
:1059500081E00E944329C091C80685E0E82EEC0E44
:10596000D4E0DC1B13E01C1B02E00C1B81E0F82ED2
:10597000FC1ADC2ED194C1112EC08091C706882359
:10598000B1F080914D01882359F081E09091C706D4
:10599000911180E024E04BED5AE06D2D0E944DBE48
:1059A000CF5FEC12E8CF85E08093C2060CC08091F7
:1059B000D0061092D006882321F30E94F629809108
:1059C000E5068823F1F2DF91CF911F910F91FF90AF
:1059D000EF90DF900895C13011F58091C7068130B6
:1059E00079F080914D018823D9F281E09091C7062A
:1059F000913009F080E023E042E858E26F2DCECFED
:105A00008091D0061092D006882359F389EC92E257
:105A10000E94C8298091E506882319F3D4CFC230AB
:105A200009F055C08091C706823081F080914D0108
:105A3000882309F4B5CF81E09091C706923009F030
:105A400080E023E04BE758E2602FA8CF8091D0069A
:105A50001092D006882351F384EC92E20E94C82968
:105A60008091E506882311F3AECF8091C70683307D
:105A700081F080914D01882309F492CF81E09091CB
:105A8000C706933009F080E023E044E758E2612F35
:105A900085CF8091D0061092D006882351F38FEBEA
:105AA00092E20E94C8298091E506882311F38BCFEA
:105AB0008091D0061092D006882391F08AEB92E272
:105AC0000E94C8298091E506882351F07CCFC3301D
:105AD00061F2C43009F064CF8091C706843041F38D
